:200000000C9482000C94AA000C94AA000C94AA000C94AA000C94AA000C94AA000C94AA00B8
:200020000C94AA000C94AA000C94AA000C94AA000C94AA000C94AA000C94AA000C94AA0070
:200040000C940C0C0C94AA000C946D090C94B4090C94AA000C94AA000C94AA000C94AA0003
:200060000C94AA000C94AA0000000000240027002A0000000000250028002B0000000000FF
:20008000230026002900040404040404040402020202020203030303030301020408102071
:2000A0004080010204081020010204081020000000070002010000030406000000000000EB
:2000C0000000494E46494E4954594E414ECDCCCC3D0AD7233C17B7D13877CC2B329595E670
:2000E000241FB14F0A000020410000C84200401C4620BCBE4CCA1B0E5AAEC59D74004F049C
:200100001A0B480411241FBECFEFD8E0DEBFCDBF11E0A0E0B1E0E8E7FEE102C005900D9217
:20012000A63BB107D9F712E0A6EBB1E001C01D92AF37B107E1F710E0C2E0D1E004C022979C
:20014000FE010E94E90ECE3FD107C9F70E946A0B0C942F0F0C940000CF93DF93BC0182308A
:20016000910510F462E070E0A0917B02B0917C02ED0140E050E0E0E0F0E021C08881998114
:200180008617970769F48A819B81309719F09383828304C090937C0280937B02FE0134C0CD
:2001A0006817790738F44115510519F08417950708F4AC01FE018A819B819C01E90120971B
:2001C000E9F641155105A9F1CA01861B970B049708F4BA01E0E0F0E02AC08D919C9111972D
:2001E00084179507F9F46417750781F412968D919C911397309719F09383828304C0909300
:200200007C0280937B02FD0132964CC0CA01861B970BFD01E80FF91F6193719302978D9332
:200220009C9340C0FD01828193819C01D9011097A1F68091790290917A02892B41F48091A2
:200240009F019091A00190937A02809379024091A1015091A2014115510541F44DB75EB71E
:2002600080919D0190919E01481B590B2091790230917A02CA01821B930B8617970780F02E
:20028000AB014E5F5F4F8417950750F0420F531F50937A0240937902F9016193719302C0BC
:2002A000E0E0F0E0CF01DF91CF910895CF93DF93009709F450C0EC0122971B821A82A091E9
:2002C0007B02B0917C02109709F140E050E0AC17BD0708F1BB83AA83FE0121913191E20FA2
:2002E000F31FAE17BF0779F48D919C911197280F391F2E5F3F4F3983288312968D919C91FD
:2003000013979B838A834115510571F4D0937C02C0937B0220C012968D919C911397AD011B
:20032000009711F0DC01D3CFFA01D383C28321913191E20FF31FCE17DF0769F4888199814E
:20034000280F391F2E5F3F4FFA01318320838A819B8193838283DF91CF910895A0E0B0E0E2
:20036000E4EBF1E00C94FA0E6C01009729F4CB010E94AC006C01C1C08EEF882E8FEF982E95
:200380008C0C9D1C8601060F171F0815190508F4B2C0F401A081B181A617B707B8F0A53051
:2003A000B10508F4AAC0CD0104978617970708F4A4C01297A61BB70BF801A193B193D401AB
:2003C0006D937C93CF010E94560197C07B01EA1AFB0AEEEFFFEFEE0EFF1E36016A0E7B1E3D
:2003E000C0917B02D0917C02AA24BB24442455244AC0C615D705E1F5488159814E155F05C1
:20040000B8F1CA0104978E159F05B0F41296A40FB51FF401B183A0832A813B814114510456
:2004200031F0D20113963C932E93129766C030937C0220937B0261C08A819B81F8019383F8
:200440008283425050404E195F09518340834114510431F0D20113961C930E93129704C00B
:2004600010937C0200937B02F4017183608345C088819981A816B90608F45C012E018A8147
:200480009B819C01E901209709F0B3CF8091790290917A0286159705E9F4A616B706D0F40D
:2004A0002091A1013091A2012115310541F42DB73EB780919D0190919E01281B390B0217FC
:2004C0001307C8F410937A0200937902D4016D937C9313C0CB010E94AC00EC01009759F07B
:2004E000F40140815181B6010E948702C6010E9456016E0102C0CC24DD24C601CDB7DEB7D0
:20050000E0E10C94160F662777270C94AF02FB01DC0102C001900D9241505040D8F7089581
:20052000FB01DC018D91019080190110D9F3990B0895FB01DC0101900D920020E1F70895DE
:20054000FB01DC014150504048F001900D920020C9F701C01D9241505040E0F70895A0E0D4
:20056000B0E0E5EBF2E00C94FE0EEC015B016115710519F0FB0191838083F9908F2D90E097
:200580000E94ED0E892BC9F7FDE2FF1621F4F990EE24E39405C02BE2F21609F4F990EE24BD
:2005A0008E0101501040C80162EC70E043E050E00E940F04892B01F58E010E5F1F4FC801BF
:2005C00065EC70E045E050E00E940F04892B19F48E01095F1F4FA114B10419F0F50111834D
:2005E0000083E0FC04C070E090E080E814C070E090E080E86FEF08C1C8016AEC70E043E0FB
:2006000050E00E940F04892B69F4A114B10429F470E090E080EC6FE7F7C02296F501D18322
:20062000C083F6CF8824992440E050E060E070E0EF2DE053EA30A0F5F2E0EF2A8E2D90E055
:200640009C0128703070E2FE06C0232B79F50894811C911C2BC0232B19F00894810891087D
:20066000DB01CA0112E0880F991FAA1FBB1F1A95D1F7480F591F6A1F7B1F440F551F661F3A
:20068000771F4E0F511D611D711D483929E9520729E9620729E1720748F084E0E82A06C08F
:2006A000EE3F31F4E3FC39C098E0E92AF990C0CFE53311F0E53189F529912D3219F4E0E1D9
:2006C000EE2A05C02B3219F081E090E003C0299182E090E0E22FE053EA3018F0C81BD90B8A
:2006E0001CC020E030E0FCE020383F075CF4C901880F991F880F991F280F391F220F331FCA
:200700002E0F311DE991E053EA3068F3E4FE03C0309521953F4F820E931ECE2CDD24E1FE63
:2007200007C0A114B10421F02197F501D183C083CB01BA010E94910D7B018C01F3E0CF229E
:20074000DD2423E0C216D10421F417FB109517F9109557016801C801B70120E030E040E0F5
:2007600050E00E94F40C882309F44AC097FE0DC021EEE22E20E0F22E90948194910893945B
:20078000C0E2D0E000E010E012C099EFE92E90E0F92EF6CFF7012591359145915491C60174
:2007A000B5010E94430E5B016C018C1A9D0A8C169D0684F7D595C7950F5F1F4F06301105CC
:2007C00029F08CEF9FEFE80EF91EF1CFC501D6017C018D018C2D880F8D2D881F8F3F51F0C2
:2007E000C601B50120E030E040E050E00E94F40C882331F482E290E090937E0280937D02A1
:200800007E2D9F2D802F612F272F392F482F562FB901CA01CDB7DEB7ECE00C941A0FFB0139
:20082000DC014150504088F08D9181341CF08B350CF4805E659161341CF06B350CF4605ED0
:20084000861B611171F3990B0895881BFCCF8130910581F46F5F7F4FD1F48BEB91E060E02E
:2008600071E00E94120982EC91E06BE671E00E9412090895892B59F46F5F7F4F41F482EC4F
:2008800091E00E9467098BEB91E00E946709089580E090E06FEF7FEF0E942704089581E0D8
:2008A00090E06FEF7FEF0E94270408958091B6010E94A6059093B9018093B801AA2797FD6F
:2008C000A095BA2FBC01CD010E94930D23E333E343E550E40E94430E20E030E040E85AE34D
:2008E0000E94430E20E030E040E05FE30E948F0C20E030E048EC52E40E94430E08951F939A
:2009000011E00EC081E592E00E94A60A682F8A3019F41093BA0104C082EC91E00E94CC0819
:2009200081E592E00E94750A892B61F71F910895EF92FF920F931F93DF93CF93CDB7DEB712
:20094000E2970FB6F894DEBF0FBECDBF7B018E010F5F1F4FB80142E350E020E030E00E9430
:200960001908C8010E948302F701608371838283938300E020E030E040E050E00E94F40C9A
:20098000811101E0802FE2960FB6F894DEBF0FBECDBFCF91DF911F910F91FF90EF900895AB
:2009A000FF920F931F93DF93CF93CDB7DEB72B970FB6F894DEBF0FBECDBF0E9456040E94BE
:2009C000600D2091A3013091A4012617370724F48DE06FEF70E003C08DE060E070E00E94DF
:2009E000C8058091BA01882309F47AC080E090E0A0E0B0E089839A83AB83BC8382EC91E027
:200A00006CE671E00E944608882359F00E945604AB01BC0181E592E022E030E00E94D20785
:200A20004EC082EC91E061E771E00E944608882359F00E945604AB01BC0181E592E022E00D
:200A400030E00E94D2072EC08E010B5F1F4FC80162EC71E00E945C09C801BE016F5F7F4F23
:200A60000E949804F82EC8010E946709FF2009F169817A818B819C810E94600D7093A40159
:200A80006093A30181E592E06CE771E00E9434076091A3017091A40181E592E04AE050E0F9
:200AA0000E94210781E592E069E771E00E94340706C081E592E06BEB71E00E94D50781E5ED
:200AC00092E06AE00E94520681E592E00E94CF0A82EC91E06BE671E00E942C091092BA0158
:200AE0002B960FB6F894DEBF0FBECDBFCF91DF911F910F91FF9008950F931F9301E512E076
:200B0000C80140E855E260E070E00E94EF0982EC91E068EC70E00E94830880E00E94A30529
:200B2000E0915102F09152020280F381E02DC8016DE871E04DE050E00995C8010E94CF0A6B
:200B40001F910F9108958093A5010895982F8E3008F09E5097708091A5018295880F880FE4
:200B6000807C892B80937C0080917A00806480937A0080917A0086FDFCCF20917800409167
:200B80007900942F80E030E0282B392BC90108951F93CF93DF93182FEB0161E00E94790B6B
:200BA000209709F44AC0CF3FD10509F449C0E12FF0E0E255FF4F84918330C1F0843028F4DF
:200BC000813051F08230B1F50CC0863019F1873049F1843079F514C084B5806884BDC7BD72
:200BE00033C084B5806284BDC8BD2EC080918000806880938000D0938900C093880024C07C
:200C000080918000806280938000D0938B00C0938A001AC08091B00080688093B000C0936A
:200C2000B30012C08091B00080628093B000C093B4000AC0C038D1051CF4812F60E002C068
:200C4000812F61E00E94B80BDF91CF911F910895CF92DF92EF92FF920F931F93CF93DF9315
:200C60007C016B018A01C0E0D0E00FC0D6016D916D01D701ED91FC910190F081E02DC701E4
:200C80000995C80FD91F015010400115110571F7CE01DF91CF911F910F91FF90EF90DF9046
:200CA000CF900895DC01ED91FC910190F081E02D09950895CF93DF93DB010D900020E9F7B9
:200CC0001197A61BB70BEC01E881F9810280F381E02DAD010995DF91CF9108954F925F928B
:200CE0007F928F929F92AF92BF92CF92DF92EF92FF920F931F93DF93CF93CDB7DEB7A197A2
:200D00000FB6F894DEBF0FBECDBF2C01742ECB01223008F42AE019A231E2C32ED12CCC0E03
:200D2000DD1E822E9924AA24BB24672D752FA50194010E94C50E79018A01C801B701A5018A
:200D400094010E94A60E472D461B0894C108D1084A3014F4405D01C0495CF6014083E11461
:200D6000F1040105110521F07E2C5F2DC801DDCFC201B6010E945A06A1960FB6F894DEBF05
:200D80000FBECDBFCF91DF911F910F91FF90EF90DF90CF90BF90AF909F908F907F905F9024
:200DA0004F900895DC012115310541F4ED91FC910190F081E02D642F099508950E946E063B
:200DC0000895CF92DF92EF92FF920F931F93CF93DF93EC016A017B012115310541F4E8818C
:200DE000F9810190F081E02D642F09951FC02A303105D1F477FF17C0E881F9810190F081D3
:200E0000E02D6DE209958C0144275527BA014C195D096E097F09CE012AE00E946E06980157
:200E2000280F391F04C02AE00E946E069C01C901DF91CF911F910F91FF90EF90DF90CF90DC
:200E40000895EF92FF920F931F937B019A010027F7FC0095102FB801A7010E94E1061F91F0
:200E60000F91FF90EF9008950E945A0608957F928F929F92AF92BF92CF92DF92EF92FF92AF
:200E80000F931F93CF93DF934C017A018B01722ECB01BA0120E030E040E050E00E94F40CAD
:200EA00087FD03C0C0E0D0E00EC0D401ED91FC910190F081E02DC4016DE20995EC0117FB2D
:200EC000109517F9109520E030E040E05FE3AA240BC0CA01B90120E030E040E251E40E941F
:200EE000F80C9B01AC01A394A71498F3C801B7010E94900C5B016C010E94650D7B018C0183
:200F0000C401B801A7012AE030E00E94D206C80FD91F772039F0C4016BE971E00E945A061C
:200F2000C80FD91FC801B7010E94910D9B01AC01C601B5010E948F0C24C020E030E040E208
:200F400051E40E94430E7B018C010E94600D5B016C01CC24B7FCC094DC2CC401B601A50167
:200F60002AE030E00E94E106C80FD91FC601B5010E94930D9B01AC01C801B7010E948F0C39
:200F80007A947720D1F6CE01DF91CF911F910F91FF90EF90DF90CF90BF90AF909F908F903E
:200FA0007F9008950E9437070895AF92BF92CF92DF92EF92FF920F931F93CF93DF935C010D
:200FC0006B01EE24FF24C0E0D0E010C0D501ED91FC9100811181C601BE010E940808682F8D
:200FE000C501F8010995E80EF91E2196F60184819581C817D90750F3C701DF91CF911F9174
:201000000F91FF90EF90DF90CF90BF90AF900895FC01848195816817790748F40190F081D4
:20102000E02D309721F0E60FF71F8081089580E008950F931F93CF93DF93FC018B0141151E
:201040005105F9F061157105E1F0848195812817390718F0FB01108214C041505040EC0182
:20106000C21BD30B4C175D0708F4EA0160817181620F731FC801AE010E94A002C00FD11FB6
:201080001882DF91CF911F910F910895DC01FB0114968D919C911597892B31F461157105BA
:2010A000A9F090E0808108C00D90BC91A02D6115710529F490E08C91882349F407C0CD0194
:2010C0000E9490029C0190E0232B09F491E0892F08950F931F93CF93DF93EC018B016F5F4F
:2010E0007F4F888199810E94AE01009711F480E005C0998388831B830A8381E0DF91CF916A
:201100001F910F910895CF93DF93EC0188819981892B29F08A819B818617970760F4CE01AC
:201120000E946908882341F08C819D81892B19F4E881F981108281E0DF91CF910895EF9210
:20114000FF920F931F93CF93DF93EC017B016C817D81E114F104C1F04115510599F08A0127
:20116000060F171FB8010E948308882369F0888199812C813D81820F931FB7010E94990274
:201180001D830C8381E001C080E0DF91CF911F910F91FF90EF900895DF93CF9300D0CDB7AB
:2011A000DEB769831A82BE016F5F7F4F41E050E00E949F080F900F90CF91DF910895CF9310
:2011C000DF93EC0188819981009711F00E945601198218821D821C821B821A82DF91CF9181
:2011E0000895EF92FF920F931F93CF93DF93EC017B018A01BA010E948308882321F4CE01AD
:201200000E94DF0807C01D830C8388819981B7010E949902CE01DF91CF911F910F91FF90B9
:20122000EF900895CF93DF93EC01198218821B821A821D821C821E826115710551F0DB017D
:201240000D900020E9F71197A61BB70BAD010E94F108DF91CF9108950F931F93182F092F3D
:201260006115710559F0DB010D900020E9F71197A61BB70BAD010E94F10802C00E94DF0801
:20128000812F902F1F910F910895CF93DF93EC01FB018617970761F06081718161157105EA
:2012A00029F0448155810E94F10802C00E94DF08CE01DF91CF910895FC01118210821382A1
:2012C00012821582148216820E9445090895FC01808191810E94560108951F920F920FB66B
:2012E0000F9211242F933F934F938F939F93EF93FF934091C6002091090230910A022F5F8C
:201300003F4F2F73307080910B0290910C022817390759F0E0910902F0910A02E753FE4F58
:20132000408330930A0220930902FF91EF919F918F914F913F912F910F900FBE0F901F90D3
:201340001895E0915D02F0915E02E05CFF4F8191919120813181821B930B8F739070892B2D
:2013600011F00E947F0408951F920F920FB60F9211242F933F938F939F93EF93FF93209110
:201380004D0230914E0280914F02909150022817390731F48091C1008F7D8093C10014C0EE
:2013A000E0914F02F0915002E35FFD4F208180914F029091500201968F7390709093500286
:2013C00080934F022093C600FF91EF919F918F913F912F910F900FBE0F901F901895AF9298
:2013E000BF92DF92EF92FF920F931F93CF93DF93EC017A018B01DD24403081EE580780E05E
:20140000680780E0780711F0DD24D39491E0A92EB12CEC89FD89DD2069F0C5010E8C02C07D
:20142000880F991F0A94E2F7808360E079E08DE390E005C0108260E874E88EE190E0A801E7
:2014400097010E94C50E2150304040405040569547953795279580E12030380720F0DD2042
:2014600011F0DD24D6CFE889F9893083EA89FB892083EE89FF89408121E030E0C9010A8C54
:2014800002C0880F991F0A94E2F7482B4083EE89FF894081C9010B8C02C0880F991F0A94BE
:2014A000E2F7482B4083EE89FF894081C9010C8C02C0880F991F0A94E2F7482B4083EE89C6
:2014C000FF8980810D8C02C0220F331F0A94E2F7209528232083DF91CF911F910F91FF90DC
:2014E000EF90DF90BF90AF900895DC011C96ED91FC911D97E05CFF4F219131918081918174
:20150000281B390B2F733070C9010895DC011C96ED91FC911D97E05CFF4F20813181E0543C
:20152000F040DF01AE5BBF4F8D919C9111972817390719F42FEF3FEF07C08D919C91E80FB0
:20154000F91F8081282F30E0C9010895DC011C96ED91FC911D97E05CFF4F20813181E05445
:20156000F040DF01AE5BBF4F8D919C9111972817390719F42FEF3FEF10C08D919C911197B6
:20158000E80FF91F20818D919C91119701968F73907011969C938E9330E0C9010895FC01A4
:2015A00086859785DC01A05CBF4FFC01EE5BFF4F2D913C9111978081918128173907C1F70C
:2015C0000895CF93DF93EC01EE85FF85E05CFF4F20813181E054F0402F5F3F4F2F73307017
:2015E000DF01AE5BBF4F8D919C91119728173907D1F3E05CFF4F80819181E054F040E80FC6
:20160000F91F6083EE85FF85E05CFF4F31832083EE89FF89208181E090E00D8C02C0880F94
:20162000991F0A94E2F7282B208381E090E0DF91CF910895109254021092530288EE93E06F
:20164000A0E0B0E08093550290935602A0935702B09358028AEA91E09093520280935102AA
:2016600089EC91E090935E0280935D028DE092E09093600280935F0285EC90E0909362024F
:201680008093610284EC90E0909364028093630280EC90E0909366028093650281EC90E035
:2016A000909368028093670286EC90E090936A028093690284E080936B0283E080936C026A
:2016C00087E080936D0285E080936E0281E080936F020895CF93DF930E94540C0E947C05BE
:2016E000C1EAD9E00E94D0042097E1F30E94A109F9CFCF93DF93482F50E0CA0186569F4F61
:20170000FC0134914A575F4FFA018491882369F190E0880F991FFC01E859FF4FA591B491DD
:20172000FC01EE58FF4FC591D491662351F42FB7F8948C91932F909589238C938881892399
:201740000BC0623061F42FB7F8948C91932F909589238C938881832B88832FBF06C09FB7CA
:20176000F8948C91832B8C939FBFDF91CF910895482F50E0CA0182559F4FFC012491CA0174
:2017800086569F4FFC0194914A575F4FFA013491332309F440C0222351F1233071F024306C
:2017A00028F42130A1F0223011F514C02630B1F02730C1F02430D9F404C0809180008F7784
:2017C00003C0809180008F7D8093800010C084B58F7702C084B58F7D84BD09C08091B00035
:2017E0008F7703C08091B0008F7D8093B000E32FF0E0EE0FFF1FEE58FF4FA591B4912FB79E
:20180000F894662321F48C919095892302C08C91892B8C932FBF08951F920F920FB60F92BB
:2018200011242F933F938F939F93AF93BF938091740290917502A0917602B09177023091B4
:2018400078020196A11DB11D232F2D5F2D3720F02D570196A11DB11D20937802809374023C
:2018600090937502A0937602B09377028091700290917102A0917202B09173020196A11DA0
:20188000B11D8093700290937102A0937202B0937302BF91AF919F918F913F912F910F90F1
:2018A0000FBE0F901F901895789484B5826084BD84B5816084BD85B5826085BD85B5816024
:2018C00085BDEEE6F0E0808181608083E1E8F0E01082808182608083808181608083E0E87F
:2018E000F0E0808181608083E1EBF0E0808184608083E0EBF0E0808181608083EAE7F0E08E
:201900008081846080838081826080838081816080838081806880831092C1000895505880
:20192000BB27AA270ED075C166D130F06BD120F031F49F3F11F41EF45BC10EF4E095E7FBAE
:2019400051C1E92F77D180F3BA17620773078407950718F071F49EF58FC10EF4E0950B2EC7
:20196000BA2FA02D0B01B90190010C01CA01A0011124FF27591B99F0593F50F4503E68F1C6
:201980001A16F040A22F232F342F4427585FF3CF469537952795A795F0405395C9F77EF494
:2019A0001F16BA0B620B730B840BBAF09150A1F0FF0FBB1F661F771F881FC2F70EC0BA0F9D
:2019C000621F731F841F48F4879577956795B795F7959E3F08F0B3CF9395880F08F099274B
:2019E000EE0F979587950895D9D008F481E008950CD00FC107D140F0FED030F021F45F3F0D
:201A000019F0F0C0511139C1F3C014D198F39923C9F35523B1F3951B550BBB27AA276217BE
:201A20007307840738F09F5F5F4F220F331F441FAA1FA9F333D00E2E3AF0E0E830D0915070
:201A40005040E695001CCAF729D0FE2F27D0660F771F881FBB1F261737074807AB07B0E8E1
:201A600009F0BB0B802DBF01FF2793585F4F2AF09E3F510568F0B6C000C15F3FECF3983E4C
:201A8000DCF3869577956795B795F7959F5FC9F7880F911D9695879597F90895E1E0660FCF
:201AA000771F881FBB1F621773078407BA0720F0621B730B840BBA0BEE1F88F7E0950895D3
:201AC00004D06894B111D9C00895BCD088F09F5790F0B92F9927B751A0F0D1F0660F771FB8
:201AE000881F991F1AF0BA95C9F712C0B13081F0C3D0B1E00895C0C0672F782F8827B85F06
:201B000039F0B93FCCF3869577956795B395D9F73EF490958095709561957F4F8F4F9F4FA9
:201B20000895E89409C097FB3EF490958095709561957F4F8F4F9F4F9923A9F0F92F96E934
:201B4000BB279395F695879577956795B795F111F8CFFAF4BB0F11F460FF1BC06F5F7F4F24
:201B60008F4F9F4F16C0882311F096E911C0772321F09EE8872F762F05C0662371F096E80E
:201B8000862F70E060E02AF09A95660F771F881FDAF7880F9695879597F90895990F000879
:201BA000550FAA0BE0E8FEEF16161706E807F907C0F012161306E407F50798F0621B730BC4
:201BC000840B950B39F40A2661F0232B242B252B21F408950A2609F4A140A6958FEF811D24
:201BE000811D089597F99F6780E870E060E008959FEF80EC089500240A94161617061806BF
:201C00000906089500240A9412161306140605060895092E0394000C11F4882352F0BB0FBD
:201C200040F4BF2B11F460FF04C06F5F7F4F8F4F9F4F089557FD9058440F551F59F05F3F6F
:201C400071F04795880F97FB991F61F09F3F79F087950895121613061406551FF2CF4695AA
:201C6000F1DF08C0161617061806991FF1CF86957105610508940895E894BB276627772734
:201C8000CB0197F908950BD0C4CFB5DF28F0BADF18F0952309F0A6CFABCF1124EECFCADF55
:201CA000A0F3959FD1F3950F50E0551F629FF001729FBB27F00DB11D639FAA27F00DB11D03
:201CC000AA1F649F6627B00DA11D661F829F2227B00DA11D621F739FB00DA11D621F839F15
:201CE000A00D611D221F749F3327A00D611D231F849F600D211D822F762F6A2F11249F57B6
:201D000050408AF0E1F088234AF0EE0FFF1FBB1F661F771F881F91505040A9F79E3F510508
:201D200070F060CFAACF5F3FECF3983EDCF3869577956795B795F795E7959F5FC1F7FE2B23
:201D4000880F911D9695879597F90895629FD001739FF001829FE00DF11D649FE00DF11DDB
:201D6000929FF00D839FF00D749FF00D659FF00D9927729FB00DE11DF91F639FB00DE11DA4
:201D8000F91FBD01CF0111240895A1E21A2EAA1BBB1BFD010DC0AA1FBB1FEE1FFF1FA21713
:201DA000B307E407F50720F0A21BB30BE40BF50B661F771F881F991F1A9469F76095709586
:201DC000809590959B01AC01BD01CF010895EE0FFF1F0590F491E02D0994911106C080325C
:201DE00019F089508550D0F708959927882708952F923F924F925F926F927F928F929F92F4
:201E0000AF92BF92CF92DF92EF92FF920F931F93CF93DF93CDB7DEB7CA1BDB0B0FB6F894EF
:201E2000DEBF0FBECDBF09942A88398848885F846E847D848C849B84AA84B984C884DF80B1
:201E4000EE80FD800C811B81AA81B981CE0FD11D0FB6F894DEBF0FBECDBFED01089511E07B
:201E6000C2E0D1E004C0FE010E94E90E2296C430D107C9F7F894FFCF0A0A092D2D204865D1
:201E80006C7020666F7220556E69736F66742041726475696E6F2D74656D70202D2D0A742A
:201EA000656D70202020203D3E20646567726565732063656C636975732C206E756D62657B
:201EC00072206F6E6C790A74656D70202D68203D3E20646567726565732063656C6369750A
:201EE000730A000074656D700074656D70202D6800204300416C61726D206973206E6F7784
:201F00002061742000446F6E6520626F6F74696E670A002E0020007F020000190001000021
:201F20000000E10A2806750AA60A860ACF0A6565732063656C636975732C206E756D626548
:201F400072206F6E6C790A74656D70202D68203D3E20646567726565732063656C63697589
:201F6000730A000074656D700074656D70202D6800204300416C61726D206973206E6F7703
:201F80001F910F91FF90EF9008952F923F924F925F926F927F928F929F92AF92BF92CF928B
:201FA000DF92EF92FF920F931F93DF93CF93CDB7DEB7A0970FB6F894DEBF0FBECDBF1C01C2
:201FC0006A017B01411551056105710549F440E350E060E070E020E030E00E94801056C01A
:201FE000882499245401422E55246624772401E010E00C0F1D1F080D191DC701B601A3017F
:2020000092010E945011F80160830894811C911CA11CB11CC701B601A30192010E94501125
:20202000C901DA016C017D01C114D104E104F104F1F681E0E82EF12CEC0EFD1EE80CF91CF3
:202040003E010894611C711CD501C4010197A109B1096C01C818D90816C0F601EE0DFF1DF2
:2020600040814A3010F4405D01C0495C552747FD5095652F752FC10120E030E00E9480103D
:202080000894E108F1086E147F0439F7A0960FB6F894DEBF0FBECDBFCF91DF911F910F91F0
:2020A000FF90EF90DF90CF90BF90AF909F908F907F906F905F904F903F902F900895DC0184
:2020C0002115310541F4ED91FC910190F081E02D642F099508950E94C50F0895EF92FF9252
:2020E0000F931F939A01E62EFF2400E010E0B801A7010E945F101F910F91FF90EF9008957D
:20210000EF92FF920F931F93CF93DF93EC017A018B012115310541F4E881F9810190F0810B
:20212000E02D642F09951BC02A303105B1F477FF10C04DE250E060E070E020E030E00E946A
:20214000801010950095F094E094E11CF11C011D111DCE01B801A7012AE00E94C50FDF9147
:20216000CF911F910F91FF90EF900895EF92FF920F931F937B019A010027F7FC0095102F99
:20218000B801A7010E9480101F910F91FF90EF9008952F923F924F925F926F927F928F921A
:2021A0009F92AF92BF92CF92DF92EF92FF920F931F93DF93CF93CDB7DEB73B014C01190194
:2021C0002A016D897E898F89988D6A197B098C099D09621A730A840A950AA40193010E9457
:2021E0001211E218F30804091509A80197010E9472112A0D3B1D4C1D5D1DB901CA01CF91DF
:20220000DF911F910F91FF90EF90DF90CF90BF90AF909F908F907F906F905F904F903F909B
:202220002F900895629FD001739FF001829FE00DF11D649FE00DF11D929FF00D839FF00D06
:20224000749FF00D659FF00D9927729FB00DE11DF91F639FB00DE11DF91FBD01CF01112431
:202260000895991B79E004C0991F961708F0961B881F7A95C9F78095089597FB092E0726C4
:202280000AD077FD04D049D006D000201AF4709561957F4F0895F6F7909581959F4F0895E6
:2022A000A1E21A2EAA1BBB1BFD010DC0AA1FBB1FEE1FFF1FA217B307E407F50720F0A21BF8
:2022C000B30BE40BF50B661F771F881F991F1A9469F760957095809590959B01AC01BD018E
:2022E000CF01089597FB092E05260ED057FD04D0D7DF0AD0001C38F450954095309521956A
:202300003F4F4F4F5F4F0895F6F790958095709561957F4F8F4F9F4F0895AA1BBB1B51E120
:2023200007C0AA1FBB1FA617B70710F0A61BB70B881F991F5A95A9F780959095BC01CD0182
:202340000895EE0FFF1F0590F491E02D0994F894FFCF2E63707000536572766F206F6E6CBE
:2023600079206F6E2070696E732066726F6D203220746F20313300493243206D6F646520BD
:202380006E6F742079657420737570706F7274656400556E6B6E6F776E2070696E206D6F21
:2023A0006465004E6F7420656E6F7567682064617461002F7661722F666F6C646572732FFE
:2023C000714D2F714D625253563343325261522D452B42597048425A2B2B2B2B544D2F2D13
:2023E000546D702D2F6275696C64373231323230393532393437333637393237322E746D4B
:20240000702F5374616E646172644669726D6174615F325F325F666F72554E4F5F305F334D
:202420002E63707000200078030000130001000000003A0F8E0FA60FDF0E0A0F2E0FF00EA0
:20244000714D2F714D625253563343325261522D452B42597048425A2B2B2B2B544D2F2D92
:20246000546D702D2F6275696C64373231323230393532393437333637393237322E746DCA
:20248000FFFFFFFFFFFFFFFFFFFFFFFFFFFFFFFFFFFFFFFFFFFFFFFFFFFFFFFFFFFFFFFF5C
:2024A000FFFFFFFFFFFFFFFFFFFFFFFFFFFFFFFFFFFFFFFFFFFFFFFFFFFFFFFFFFFFFFFF3C
:2024C000FFFFFFFFFFFFFFFFFFFFFFFFFFFFFFFFFFFFFFFFFFFFFFFFFFFFFFFFFFFFFFFF1C
:2024E000FFFFFFFFFFFFFFFFFFFFFFFFFFFFFFFFFFFFFFFFFFFFFFFFFFFFFFFFFFFFFFFFFC
:207E0000112484B714BE81FFF0D085E08093810082E08093C00088E18093C10086E08093FC
:207E2000C20080E18093C4008EE0C9D0259A86E020E33CEF91E0309385002093840096BBAD
:207E4000B09BFECF1D9AA8958150A9F7CC24DD2488248394B5E0AB2EA1E19A2EF3E0BF2E79
:207E6000A2D0813461F49FD0082FAFD0023811F0013811F484E001C083E08DD089C0823404
:207E800011F484E103C0853419F485E0A6D080C0853579F488D0E82EFF2485D0082F10E0A0
:207EA000102F00270E291F29000F111F8ED068016FC0863521F484E090D080E0DECF84364D
:207EC00009F040C070D06FD0082F6DD080E0C81680E7D80618F4F601B7BEE895C0E0D1E0ED
:207EE00062D089930C17E1F7F0E0CF16F0E7DF0618F0F601B7BEE89568D007B600FCFDCF1A
:207F0000A601A0E0B1E02C9130E011968C91119790E0982F8827822B932B1296FA010C016F
:207F200087BEE89511244E5F5F4FF1E0A038BF0751F7F601A7BEE89507B600FCFDCF97BE85
:207F4000E89526C08437B1F42ED02DD0F82E2BD03CD0F601EF2C8F010F5F1F4F84911BD0B8
:207F6000EA94F801C1F70894C11CD11CFA94CF0CD11C0EC0853739F428D08EE10CD085E9AE
:207F80000AD08FE07ACF813511F488E018D01DD080E101D065CF982F8091C00085FFFCCF0A
:207FA0009093C60008958091C00087FFFCCF8091C00084FD01C0A8958091C6000895E0E68F
:207FC000F0E098E1908380830895EDDF803219F088E0F5DFFFCF84E1DECF1F93182FE3DF47
:207FE0001150E9F7F2DF1F91089580E0E8DFEE27FF270994FFFFFFFFFFFFFFFFFFFF040425
:00000001FF
